:020000040800F2
:100000000050002051D90008C5AB0008C7AB00085C
:10001000C9AB0008CBAB0008CDAB00080000000066
:10002000000000000000000000000000CFAB00084E
:10003000D1AB000800000000D3AB0008D5AB00082E
:1000400099D9000899D9000899D90008619C00083D
:1000500099D9000899D9000899D9000899D90008B8
:1000600099D9000899D9000899D9000899D90008A8
:1000700099D9000899D9000899D9000899D9000898
:1000800099D9000899D9000819A9000899D9000838
:1000900099D9000899D9000899D9000899D9000878
:1000A00099D9000899D9000899D9000899D9000868
:1000B00099D90008E99E000899D9000899D9000843
:1000C00099D9000899D9000899D9000899D9000848
:1000D00099D9000899D9000899D9000899D9000838
:1000E0003D9F000899D9000899D900080000000038
:1000F0000000000000000000000000000000000000
:0C01000000000000000000005FF808F1A3
:100110000348044B834202D0034B03B11847704796
:10012000280A0020280A002000000000054806498F
:100130000B1AD90F01EBA301491002D0034B03B1F5
:1001400018477047280A0020280A002000000000F5
:1001500010B5064C237843B9FFF7DAFF044B13B10F
:100160000448AFF300800123237010BD280A00204B
:1001700000000000B0D9000808B5044B1BB10449C9
:100180000448AFF30080BDE80840CFE7000000005E
:100190002C0A0020B0D90008C0F3C7520028A2F1F1
:1001A0007F0CB4BF4FF0FF310121BCF11E0F08B529
:1001B0000FDCBCF1000F1ADBC0F31603BCF1160F05
:1001C00043F400030ADD963A934003FB01F108462D
:1001D00008BD01F05BFC0146084608BD4FF48002F3
:1001E00042FA0CF2CCF117001344C340EDE7BCF126
:1001F000FF3F18BF0021084608BD00BF70B5064686
:100200000C4600F087F8414B054693F90030013366
:100210001ED02146204601F023FCC8B931463046A5
:1002200001F01EFC00282FD13046002101F0E6FB32
:1002300080B12046002101F0E1FB58BB204600F0D0
:100240005FFC28B12046002101F0E2FB002841D1EB
:10025000284670BD284600F053FCF8B1284600211E
:1002600001F0CCFB0028F3D0304600F049FC002818
:10027000EED0204600F044FC0028E9D001F0D6FD85
:10028000222300250360E3E72046002101F0B6FBAE
:100290000028DDD04FF07E55284670BD304600F076
:1002A0002FFC0028DAD0204600F02AFC0028D5D008
:1002B0002946284601F0D4FBE0B901F0B7FD22221F
:1002C0000346002130461A6001F0A2FB40B94FF00E
:1002D000FF45BDE701F0AAFD21230D4D0360B7E7FF
:1002E000204600F019FC214601F088FB0028EED1E1
:1002F000074DADE701F09AFD2122034600211A6067
:10030000084601F09BFA0546A2E700BF0000002066
:10031000000080FF2DE9F04F31F0004A87B012D085
:1003200020F00048B8F1FF4F0746814605DDB3488D
:1003300007B0BDE8F04F00F0EBBBBAF1FF4F07DDAF
:10034000B8F17E5FF3D14FF07E5007B0BDE8F08F7B
:1003500000280C460D46C0F235810026BAF1FF4F49
:1003600000F04381BAF17E5F00F08B81B5F1804FE0
:1003700000F09B81B5F17C5F384640F06181B9F1B6
:10038000000F80F2978100F0B7FBB8F1FF4F00F04B
:100390006B81B8F1000F00F06381B8F17E5F00F06F
:1003A00058814FEAD9735A1E56EA020300F087813A
:1003B000BAF19A4F40F38B81914B984540F31C83DF
:1003C000904B984500F361814FF07E51009201F00F
:1003D00077F88D49074601F07DF98C49814638460A
:1003E00001F078F94FF07A518046384601F072F901
:1003F0000146874801F064F8394601F06BF901467F
:100400004FF07C5001F05CF80346394638461F46F1
:1004100001F060F90146384601F05CF97D4901F0D0
:1004200059F90146404601F04BF88046484641469E
:1004300001F048F820F47F6727F00F074946384657
:1004400001F03EF80146404601F03AF88046009A35
:1004500025F47F65013E25F00F0556EA0203294683
:10046000204614BF4FF07E566B4E01F029F83946F6
:1004700001F030F90346214640461C4601F02AF9B6
:100480000146204601F01EF80346294638461F461D
:1004900001F020F905463846294601F013F80028F6
:1004A000AA468046044620F0004940F33982B9F15B
:1004B000864F00F3998200F08782B9F17C5F00F3E8
:1004C0003C820025A84624F47F6424F00F042046D3
:1004D000524901F0FFF851468146204600F0F0FFF6
:1004E0000146384600F0ECFF4D4901F0F3F80346B1
:1004F0004C4920461C4601F0EDF80146204600F02C
:10050000E1FF07464846394600F0DCFF494604460D
:1005100000F0D6FF0146384600F0D2FF2146814662
:10052000204601F0D7F807463F4901F0D3F83F498C
:1005300000F0C6FF394601F0CDF83D4900F0C2FF9A
:10054000394601F0C7F83B4900F0BAFF394601F0DF
:10055000C1F8394900F0B6FF394601F0BBF8014651
:10056000204600F0ADFF07462046394601F0B2F8BC
:1005700003464FF0804138461F4600F0A1FF014678
:10058000384601F05BF949460746204601F0A2F8DB
:10059000494600F097FF0146384600F091FF21469A
:1005A00000F08EFF01464FF07E5000F089FF0346B9
:1005B0002B44B3F5000FC0F238821846314601F0E3
:1005C00089F8C2E6BAF1974F38DABAF17E5F0ADBF2
:1005D0004FEAEA53C3F196034AFA03F202FA03F32D
:1005E000534500F098810026BCE6B8F17E5F3FF4E9
:1005F000AAAE4FDD002D4BDB2046A6E678DE0008D4
:10060000F7FF7F3F0700803F00AAB83F70A5EC3698
:10061000ABAAAA3E3BAAB83F000080BF0072313FA0
:100620001872313F8CBEBF354CBB31330EEADD351D
:1006300055B38A38610B363BABAA2A3E02268DE6BB
:1006400000F05AFAB8F1FF4F03D0B8F1000F7FF471
:10065000A4AE002D04DA01464FF07E5001F0EEF812
:10066000B9F1000FBFF671AEA8F17E5858EA060343
:1006700040F04B81014600F023FF014601F0DEF817
:1006800063E6002D0BDB38465FE6002D00F3B781F3
:1006900000205AE6002DFBDA04F1004055E6394609
:1006A0004FF07E5001F0CAF84FE63946384601F067
:1006B00011F84AE607B0BDE8F04F00F0C5B9394679
:1006C000384600F0FDFE014601F0B8F83DE619F0AD
:1006D000FF4F40F05B814FF09741009200F0FAFF2E
:1006E0006FF017018046009A4FEAE8537F3B591894
:1006F000A74BC8F316089845009148F07E5907DDCE
:10070000A44B984540F3808101310091A9F500097F
:10071000002300274FF07E5A059304935146484624
:100720000392CDF8049000F0CBFE019B8346514626
:100730001846029300F0C6FE01464FF07E5001F0CD
:100740007DF8034658461946019300F0C3FF4FEA6F
:10075000690141F0005101F5802120F47F6929F001
:100760000F090F4480463946484600F0B3FF014662
:10077000584600F0A5FE844651463846674600F0CC
:100780009FFE029B0146184600F09AFE494600F083
:10079000A1FF0146384600F093FE019900F09AFF50
:1007A00041468246404600F095FF07467A4900F0F0
:1007B00091FF7A4900F086FE394600F08BFF7849B8
:1007C00000F080FE394600F085FF764900F07AFEA1
:1007D000394600F07FFF744900F074FE394600F09E
:1007E00079FF724900F06EFE0346394638461F46CF
:1007F00000F070FF0146384600F06CFF074649469E
:10080000404600F05FFE514600F064FF394600F0BC
:1008100059FE49468346484600F05CFF6449019012
:1008200000F050FE594600F04DFE074627F47F6762
:1008300027F00F073946484600F04CFF5C498146D7
:10084000384600F03DFE019B194600F039FE014696
:10085000584600F035FE414600F03CFF034639465D
:1008600050461F4600F036FF0146384600F02AFE8B
:1008700080464846414600F025FE20F47F6727F079
:100880000F0738464B4900F025FF034649463846D6
:10089000994600F015FE0146404600F011FE46491B
:1008A00000F018FF0346454938461F4600F012FF86
:1008B0000146384600F006FE049900F003FE80462B
:1008C000009800F0B3FE82464146484600F0FAFD2B
:1008D000DDF814B0594600F0F5FD514600F0F2FD88
:1008E00020F47F6727F00F075146384600F0E8FDF7
:1008F000594600F0E5FD494600F0E2FD014640465C
:1009000000F0DEFD039A8046A2E5012E7FF41DADC6
:1009100000F1004019E502F00102C2F1020621E5F2
:10092000274B994579DC7FF4C8AD294600F0C8FD16
:10093000394601F081F800286FD14FF400034FEAE7
:10094000E959A9F17E0943FA09F909EB0403C3F354
:10095000C7521C49C3F316087F3A114148F40008F6
:10096000C2F1170248FA02F8002C23EA01012846D6
:10097000B8BFC8F1000800F0A3FD824638465146D2
:1009800000F0A0FD4FEAC85504469CE50021ABE607
:1009900071C41C00D6B35D0042F1533E55326C3E2B
:1009A00005A38B3EABAAAA3EB76DDB3E9A99193FD1
:1009B000000040400038763F4F38763FA0C39D3658
:1009C00000001643FFFF7F001A49384600F07AFD09
:1009D000034629464046984600F072FD01464046CF
:1009E00001F034F80028A8D03046134900F072FE18
:1009F000114900F06FFEA8E4002DBFF649AE0E4984
:100A0000084600F067FEA0E40C4B4FF40017059376
:100A10000B4B4FF07F5A049380E63046094900F0B3
:100A200059FE084900F056FE8FE4414600F0C8F830
:100A3000C4E500BF3CAA3833CAF2497100C0153F73
:100A4000DCCFD1356042A20D20F00042B2F1FF4F61
:100A500010B5044634D292B30028034642DB10F0AE
:100A6000FF4F4FEAE05432D00021A4F17F00E207AB
:100A70004FF0190C4FEA60044FF080720846C3F340
:100A8000160343F4000358BF5B005B0000EB020E4B
:100A90009E4504DC0EEB0200A3EB0E031144BCF1F7
:100AA000010C4FEA43034FEA5202EFD113B1013177
:100AB00021F00101481000F17C5000EBC45010BD42
:100AC000014600F007FE214600F0FCFC10BD10F4CA
:100AD00000020ED15B001802114602F10102F9D5A5
:100AE000641AC1E7014600F0EBFC014600F0A6FEE7
:100AF00010BD4FF0FF31F3E720F00040704700BF1A
:100B000020F00040B0F1FF4FACBF00200120704743
:100B1000004870470000C07F30B5C0F3C7537F3B2B
:100B2000162B014683B020F0004222DCF2B1002BEC
:100B300004464FEAD07025DB1F4A1A41114215D0F6
:100B4000550811EA520205D04FF4001124EA0504B9
:100B500019412143194B53F82040204600F0B2FCC4
:100B600001902146019800F0ABFC0146084603B015
:100B700030BDB2F1FF4FF9D300F0A4FC01460846A6
:100B800003B030BD0D4AC1F316035B4252F820504A
:100B90005B0A090D03F4800309051943284600F098
:100BA00091FC01902946019800F08AFC04F0004174
:100BB00020F000400143D9E7FFFF7F00C8D90008BB
:100BC00030F0004C034625D0BCF1FF4F10B51DD2CC
:100BD00010F0FF4F0C4602461DD14FF0984100F037
:100BE00079FD234A0346944233DBC0F3C75C0246D7
:100BF000ACF1190000EB040CBCF1FE0F12DD18463D
:100C00001C4961F31E0000F065FD10BD014600F0B7
:100C100059FC10BD70474FEADC5000EB040CBCF1EE
:100C2000FE0FECDCBCF1000F0EDC1CF1160F14DA29
:100C30004CF2503218469442CCBF0E490E4961F333
:100C40001E0000F047FD10BD22F0FF4040EACC50EE
:100C500010BD094900F03EFD10BD0CF1190022F055
:100C6000FF424FF04C5142EAC05000F033FD10BD3E
:100C7000B03CFFFFCAF249716042A20D81F0004111
:100C800002E000BF83F0004330B54FEA41044FEA71
:100C9000430594EA050F08BF90EA020F1FBF54EA0C
:100CA000000C55EA020C7FEA645C7FEA655C00F0A8
:100CB000E2804FEA5454D4EB5555B8BF6D420CDD79
:100CC0002C4480EA020281EA030382EA000083EAFC
:100CD000010180EA020281EA0303362D88BF30BD9C
:100CE00011F0004F4FEA01314FF4801C4CEA1131F2
:100CF00002D0404261EB410113F0004F4FEA033351
:100D00004CEA133302D0524263EB430394EA050FDB
:100D100000F0A780A4F10104D5F1200E0DDB02FA4A
:100D20000EFC22FA05F2801841F1000103FA0EF2DE
:100D3000801843FA05F359410EE0A5F120050EF1A4
:100D4000200E012A03FA0EFC28BF4CF0020C43FAD5
:100D500005F3C01851EBE37101F0004507D54FF0E2
:100D6000000EDCF1000C7EEB00006EEB0101B1F532
:100D7000801F1BD3B1F5001F0CD349085FEA300078
:100D80004FEA3C0C04F101044FEA445212F5800F83
:100D900080F09A80BCF1004F08BF5FEA500C50F120
:100DA000000041EB045141EA050130BD5FEA4C0C03
:100DB000404141EB0101013C28BFB1F5801FE9D260
:100DC00091F0000F04BF01460020B1FA81F308BF83
:100DD0002033A3F10B03B3F120020CDA0C3208DD4F
:100DE00002F1140CC2F10C0201FA0CF021FA02F12A
:100DF0000CE002F11402D8BFC2F1200C01FA02F19A
:100E000020FA0CFCDCBF41EA0C019040E41AA2BFBE
:100E100001EB0451294330BD6FEA04041F3C1CDA86
:100E20000C340EDC04F11404C4F1200220FA04F0A6
:100E300001FA02F340EA030021FA04F345EA030150
:100E400030BDC4F10C04C4F1200220FA02F001FA12
:100E500004F340EA0300294630BD21FA04F0294694
:100E600030BD94F0000F83F4801306BF81F480112D
:100E70000134013D4EE77FEA645C18BF7FEA655CA0
:100E800029D094EA050F08BF90EA020F05D054EA72
:100E9000000C04BF1946104630BD91EA030F1EBF77
:100EA0000021002030BD5FEA545C05D1400049417B
:100EB00028BF41F0004130BD14F580043CBF01F56E
:100EC000801130BD01F0004545F0FE4141F4700154
:100ED0004FF0000030BD7FEA645C1ABF194610462F
:100EE0007FEA655C1CBF0B46024650EA013406BF30
:100EF00052EA033591EA030F41F4002130BD00BFEF
:100F000090F0000F04BF0021704730B54FF48064AB
:100F100004F132044FF000054FF0000150E700BF2C
:100F200090F0000F04BF0021704730B54FF480648B
:100F300004F1320410F0004548BF40424FF0000178
:100F40003EE700BF42004FEAE2014FEA31014FEABB
:100F500002701FBF12F07F4393F07F4F81F060510A
:100F6000704732F07F4208BF704793F07F4F04BF55
:100F700041F40021704730B54FF4607401F0004532
:100F800021F000411CE700BF50EA010208BF704792
:100F900030B54FF000050AE050EA010208BF704783
:100FA00030B511F0004502D5404261EB41014FF4EC
:100FB000806404F132045FEA915C3FF4D8AE4FF0F4
:100FC00003025FEADC0C18BF03325FEADC0C18BFD7
:100FD000033202EBDC02C2F1200300FA03FC20FA28
:100FE00002F001FA03FE40EA0E0021FA02F1144475
:100FF000BDE600BF70B54FF0FF0C4CF4E06C1CEA8E
:1010000011541DBF1CEA135594EA0C0F95EA0C0FFE
:1010100000F0DEF82C4481EA030621EA4C5123EA71
:101020004C5350EA013518BF52EA033541F48011A0
:1010300043F4801338D0A0FB02CE4FF00005E1FB53
:1010400002E506F00042E0FB03E54FF00006E1FB9D
:1010500003569CF0000F18BF4EF0010EA4F1FF04E0
:10106000B6F5007F64F5407404D25FEA4E0E6D4120
:1010700046EB060642EAC62141EA55514FEAC52031
:1010800040EA5E504FEACE2EB4F1FD0C88BFBCF5AD
:10109000E06F1ED8BEF1004F08BF5FEA500E50F15E
:1010A000000041EB045170BD06F0004646EA010124
:1010B00040EA020081EA0301B4EB5C04C2BFD4EB56
:1010C0000C0541EA045170BD41F480114FF0000E4F
:1010D000013C00F3AB8014F1360FDEBF002001F0BD
:1010E000004170BDC4F10004203C35DA0C341BDC37
:1010F00004F11404C4F1200500FA05F320FA04F009
:1011000001FA05F240EA020001F0004221F000413C
:1011100010EBD37021FA04F642EB06015EEA430EAF
:1011200008BF20EAD37070BDC4F10C04C4F12005DF
:1011300000FA04F320FA05F001FA04F240EA020092
:1011400001F0004110EBD37041F100015EEA430E63
:1011500008BF20EAD37070BDC4F1200500FA05F283
:101160004EEA020E20FA04F301FA05F243EA020302
:1011700021FA04F001F0004121FA04F220EA020011
:1011800000EBD3705EEA430E08BF20EAD37070BD57
:1011900094F0000F0FD101F00046400041EB010137
:1011A00011F4801F08BF013CF7D041EA060195F019
:1011B000000F18BF704703F00046520043EB0303D3
:1011C00013F4801F08BF013DF7D043EA06037047C0
:1011D00094EA0C0F0CEA135518BF95EA0C0F0CD0CB
:1011E00050EA410618BF52EA4306D1D181EA030111
:1011F00001F000414FF0000070BD50EA410606BF0B
:101200001046194652EA430619D094EA0C0F02D14F
:1012100050EA013613D195EA0C0F05D152EA033694
:101220001CBF104619460AD181EA030101F00041B2
:1012300041F0FE4141F470014FF0000070BD41F0FB
:10124000FE4141F4780170BD70B54FF0FF0C4CF4D5
:10125000E06C1CEA11541DBF1CEA135594EA0C0FF4
:1012600095EA0C0F00F0A7F8A4EB050481EA030E41
:1012700052EA03354FEA013100F088804FEA033328
:101280004FF0805545EA131343EA12634FEA0222F6
:1012900045EA111545EA10654FEA00260EF00041B7
:1012A0009D4208BF964244F1FD0404F5407402D209
:1012B0005B084FEA3202B61A65EB03055B084FEA9A
:1012C00032024FF480104FF4002CB6EB020E75EB97
:1012D000030E22BFB61A754640EA0C005B084FEABF
:1012E0003202B6EB020E75EB030E22BFB61A75463C
:1012F00040EA5C005B084FEA3202B6EB020E75EB87
:10130000030E22BFB61A754640EA9C005B084FEAFE
:101310003202B6EB020E75EB030E22BFB61A75460B
:1013200040EADC0055EA060E18D04FEA051545EAFA
:1013300016754FEA06164FEAC30343EA52734FEAA3
:10134000C2025FEA1C1CC0D111F4801F0BD141EA1C
:1013500000014FF000004FF0004CB6E711F4801F81
:1013600004BF01430020B4F1FD0C88BFBCF5E06F61
:101370003FF6AFAEB5EB030C04BFB6EB020C5FEA71
:10138000500C50F1000041EB045170BD0EF0004EC6
:101390004EEA113114EB5C04C2BFD4EB0C0541EAF8
:1013A000045170BD41F480114FF0000E013C90E6F5
:1013B00045EA060E8DE60CEA135594EA0C0F08BFB9
:1013C00095EA0C0F3FF43BAF94EA0C0F0AD150EAB8
:1013D00001347FF434AF95EA0C0F7FF425AF10464B
:1013E00019462CE795EA0C0F06D152EA03353FF473
:1013F000FDAE1046194622E750EA410618BF52EAF0
:1014000043067FF4C5AE50EA41047FF40DAF52EAC3
:1014100043057FF4EBAE12E74FEA4102B2F1E0433D
:1014200024BFB3F5001CDCF1FE5C0DD901F0004CCB
:101430004FEAC0024CEA5070B2F1004F40EB83001B
:1014400008BF20F00100704711F0804F21D113F147
:101450003872BCBF01F00040704741F480114FEA80
:101460005252C2F11802C2F1200C10FA0CF320FA09
:1014700002F018BF40F001004FEAC1234FEAD32326
:1014800003FA0CFC40EA0C0023FA02F34FEA430390
:10149000CCE77FEA625307D150EA01331EBF4FF019
:1014A000FE4040F44000704701F0004040F0FE4034
:1014B00040F40000704700BF80F0004002E000BF31
:1014C00081F0004142001FBF5FEA410392EA030F2F
:1014D0007FEA226C7FEA236C6AD04FEA1262D2EB79
:1014E0001363C1BFD218414048404140B8BF5B427E
:1014F000192B88BF704710F0004F40F4000020F017
:101500007F4018BF404211F0004F41F4000121F02C
:101510007F4118BF494292EA030F3FD0A2F1010276
:1015200041FA03FC10EB0C00C3F1200301FA03F1B4
:1015300000F0004302D5494260EB4000B0F5000FD7
:1015400013D3B0F1807F06D340084FEA310102F196
:101550000102FE2A51D2B1F1004F40EBC25008BF48
:1015600020F0010040EA03007047490040EB000012
:10157000013A28BFB0F5000FEDD2B0FA80FCACF113
:10158000080CB2EB0C0200FA0CF0AABF00EBC25040
:1015900052421843BCBFD0401843704792F0000F2E
:1015A00081F4000106BF80F400000132013BB5E781
:1015B0004FEA41037FEA226C18BF7FEA236C21D0F7
:1015C00092EA030F04D092F0000F08BF084670475C
:1015D00090EA010F1CBF0020704712F07F4F04D12A
:1015E000400028BF40F00040704712F100723CBF3D
:1015F00000F50000704700F0004343F0FE4040F467
:10160000000070477FEA226216BF08467FEA236324
:101610000146420206BF5FEA412390EA010F40F40F
:10162000800070474FF0000304E000BF10F000435B
:1016300048BF40425FEA000C08BF704743F0964342
:1016400001464FF000001CE050EA010208BF70475D
:101650004FF000030AE000BF50EA010208BF7047E4
:1016600011F0004302D5404261EB41015FEA010CF9
:1016700002BF84460146002043F0B64308BFA3F1F1
:101680008053A3F50003BCFA8CF2083AA3EBC253D3
:1016900010DB01FA02FC634400FA02FCC2F12002F2
:1016A000BCF1004F20FA02F243EB020008BF20F029
:1016B0000100704702F1200201FA02FCC2F120028F
:1016C00050EA4C0021FA02F243EB020008BF20EA84
:1016D000DC7070474FF0FF0C1CEAD0521EBF1CEAB2
:1016E000D15392EA0C0F93EA0C0F6FD01A4480EAA0
:1016F000010C400218BF5FEA41211ED04FF0006389
:1017000043EA501043EA5111A0FB01310CF00040B4
:10171000B1F5000F3EBF490041EAD3715B0040EADA
:10172000010062F17F02FD2A1DD8B3F1004F40EBAA
:10173000C25008BF20F00100704790F0000F0CF07D
:10174000004C08BF49024CEA502040EA51207F3A41
:10175000C2BFD2F1FF0340EAC250704740F400001C
:101760004FF00003013A5DDC12F1190FDCBF00F00D
:1017700000407047C2F10002410021FA02F1C2F1BB
:10178000200200FA02FC5FEA310040F1000053EA57
:101790004C0308BF20EADC70704792F0000F00F0A5
:1017A000004C02BF400010F4000F013AF9D040EAAB
:1017B0000C0093F0000F01F0004C02BF490011F43F
:1017C000000F013BF9D041EA0C018FE70CEAD1533D
:1017D00092EA0C0F18BF93EA0C0F0AD030F0004CBD
:1017E00018BF31F0004CD8D180EA010000F0004071
:1017F000704790F0000F17BF90F0004F084691F02F
:10180000000F91F0004F14D092EA0C0F01D1420268
:101810000FD193EA0C0F03D14B0218BF084608D131
:1018200080EA010000F0004040F0FE4040F400007B
:10183000704740F0FE4040F4400070474FF0FF0C0E
:101840001CEAD0521EBF1CEAD15392EA0C0F93EA55
:101850000C0F69D0A2EB030280EA010C49024FEAA7
:10186000402037D04FF0805343EA111143EA101360
:101870000CF000408B4238BF5B0042F17D024FF418
:10188000000C8B4224BF5B1A40EA0C00B3EB510FF3
:1018900024BFA3EB510340EA5C00B3EB910F24BFDC
:1018A000A3EB910340EA9C00B3EBD10F24BFA3EB61
:1018B000D10340EADC001B0118BF5FEA1C1CE0D129
:1018C000FD2A3FF650AF8B4240EBC25008BF20F0DC
:1018D000010070470CF0004C4CEA50207F32C2BF30
:1018E000D2F1FF0340EAC250704740F400004FF0CD
:1018F0000003013A37E792F0000F00F0004C02BFFE
:10190000400010F4000F013AF9D040EA0C0093F0C7
:10191000000F01F0004C02BF490011F4000F013B21
:10192000F9D041EA0C0195E70CEAD15392EA0C0F89
:1019300008D142027FF47DAF93EA0C0F7FF470AFC1
:10194000084676E793EA0C0F04D14B023FF44CAF04
:1019500008466EE730F0004C18BF31F0004CCAD199
:1019600030F000427FF45CAF31F000437FF43CAFD5
:101970005FE700BF4FF0FF3C06E000BF4FF0010CF7
:1019800002E000BF4FF0010C4DF804CD4FEA4002D9
:101990004FEA41037FEA226C18BF7FEA236C11D023
:1019A00001B052EA530C18BF90EA010F58BFB2EBD6
:1019B000030088BFC81738BF6FEAE17018BF40F056
:1019C000010070477FEA226C02D15FEA402C05D10A
:1019D0007FEA236CE4D15FEA412CE1D05DF8040B8F
:1019E000704700BF844608466146FFE70FB5FFF722
:1019F000C9FF002848BF10F1000F0FBD4DF808EDDA
:101A0000FFF7F4FF0CBF012000205DF808FB00BFCA
:101A10004DF808EDFFF7EAFF34BF012000205DF824
:101A200008FB00BF4DF808EDFFF7E0FF94BF012071
:101A300000205DF808FB00BF4DF808EDFFF7D2FF6E
:101A400094BF012000205DF808FB00BF4DF808EDB1
:101A5000FFF7C8FF34BF012000205DF808FB00BF7E
:101A60004FEA40024FEA41037FEA226C02D15FEA6B
:101A7000402C08D17FEA236C02D15FEA412C02D1CD
:101A80004FF0000070474FF0010070474FEA4002EE
:101A9000B2F1FE4F0FD34FF09E03B3EB12620DD99C
:101AA0004FEA002343F0004310F0004F23FA02F006
:101AB00018BF404270474FF00000704712F1610FAD
:101AC00001D1420205D110F0004008BF6FF0004084
:101AD00070474FF00000704742000ED2B2F1FE4F47
:101AE0000BD34FF09E03B3EB126209D44FEA0023ED
:101AF00043F0004323FA02F070474FF000007047B4
:101B000012F1610F01D1420202D14FF0FF30704754
:101B10004FF00000704700BF53B94AB9002908BF11
:101B200000281CBF4FF0FF314FF0FF3000F076B9B6
:101B3000ADF1080C6DE904CE00F006F8DDF804E024
:101B4000DDE9022304B070472DE9F047089E0D46F9
:101B500004468846002B4DD18A42944668D9B2FA91
:101B600082F252B101FA02F3C2F1200120FA01F12E
:101B70000CFA02FC41EA030894404FEA1C41B8FB0E
:101B8000F1F71FFA8CFE01FB178807FB0EF0230C00
:101B900043EA084398420AD91CEB030307F1FF35D7
:101BA00080F01E81984240F21B81023F63441B1A61
:101BB000B3FBF1F001FB103300FB0EFEA4B244EACC
:101BC0000344A6450AD91CEB040400F1FF3380F05E
:101BD0000981A64540F20681644402380021A4EB45
:101BE0000E0440EA07401EB10023D440C6E900437A
:101BF000BDE8F0878B4208D9002E00F0EE8000216E
:101C0000C6E900050846BDE8F087B3FA83F100296C
:101C10004AD1AB4202D3824200F2FC80841A65EBC7
:101C2000030301209846002EE2D0C6E90048DFE712
:101C300002B9FFDEB2FA82F2002A40F09180A1EBF5
:101C40000C0001214FEA1C471FFA8CFEB0FBF7F392
:101C500007FB1300250C45EA00450EFB03F0A842E4
:101C600008D91CEB050503F1FF3802D2A84200F2A7
:101C7000CE8043462D1AB5FBF7F007FB10550EFB3F
:101C800000FEA4B244EA0544A64508D91CEB0404AE
:101C900000F1FF3502D2A64500F2B6802846A4EB3B
:101CA0000E0440EA03409EE7C1F120078B4022FA70
:101CB00007FC4CEA030C25FA07FA4FEA1C49BAFB69
:101CC000F9F820FA07F309FB18AA8D401FFA8CFED9
:101CD0001D4300FA01F308FB0EF02C0C44EA0A4401
:101CE000A04202FA01F20BD91CEB040408F1FF3AFE
:101CF00080F08880A04240F28580A8F10208644408
:101D0000241AB4FBF9F009FB104400FB0EFEADB23F
:101D100045EA0444A64508D91CEB040400F1FF354C
:101D20006CD2A6456AD90238644440EA0840A0FB58
:101D30000295A4EB0E04AC42C846AE4656D353D02F
:101D4000002E69D0B3EB080264EB0E0422FA01F313
:101D500004FA07F71F43CC40C6E90074002147E7A7
:101D60000CFA02FCC2F1200125FA01F34FEA1C47EC
:101D700020FA01F195400D43B3FBF7F107FB113356
:101D80001FFA8CFE280C40EA034001FB0EF383424D
:101D900004FA02F408D91CEB000001F1FF382FD23D
:101DA00083422DD902396044C01AB0FBF7F307FB18
:101DB0001300ADB245EA004503FB0EF0A84208D976
:101DC0001CEB050503F1FF3816D2A84214D9023BDB
:101DD0006544281A43EA014138E73146304607E7AF
:101DE0002F46E4E61846F9E64B45A9D2B9EB0208BE
:101DF00065EB0C0E0138A3E74346EAE7284694E773
:101E00004146D1E7D0467BE76444023847E7023BCE
:101E100065442FE7084606E73146E9E6704700BF0C
:101E2000002301461A46184601F0AEBC014B186863
:101E3000704700BF0800002038B5084B084D5B1BF9
:101E40009C1007D0043B1D44013C55F804399847C9
:101E5000002CF9D1BDE838400BF0B0BD24E20008F9
:101E600020E2000870B50D4E0D4D761BB61006D061
:101E7000002455F8043B01349847A642F9D1094E95
:101E8000094D0BF095FD761BB61006D0002455F8D1
:101E9000043B01349847A642F9D170BD18E200080E
:101EA00018E2000820E2000818E20008844641EA2F
:101EB000000313F0030349D1403A23D30B680360B6
:101EC0004B6843608B688360CB68C3600B690361B8
:101ED0004B6943618B698361CB69C3610B6A0362A0
:101EE0004B6A43628B6A8362CB6AC3620B6B036388
:101EF0004B6B43638B6B8363CB6BC363403040316D
:101F0000403ADBD230320BD30B6803604B6843603E
:101F10008B688360CB68C36010301031103AF3D205
:101F20000C3205D351F8043B40F8043B043AF9D293
:101F3000043208D0D2071CBF11F8013B00F8013B66
:101F400001D30B8803806046704700BF082A13D373
:101F50008B07B1D010F00303AED0C3F10403D21A43
:101F6000DB071CBF11F8013B00F8013BA4D331F89B
:101F7000023B20F8023B9FE7043AD9D3013A11F81B
:101F8000013B00F8013BF9D20B7803704B784370AA
:101F90008B78837060467047830730B548D0541EF5
:101FA000002A3FD00346CAB201E0013C3AD303F80D
:101FB000012B9D07F9D1032C2DD9CDB245EA05257A
:101FC0000F2C45EA054536D9A4F1100222F00F0C7A
:101FD00003F1200EE6444FEA121C03F1100242E91D
:101FE000045542E9025510327245F8D10CF1010254
:101FF00014F00C0F03EB021204F00F0C13D0ACF131
:10200000040323F003030433134442F8045B9342B4
:10201000FBD10CF003042CB1CAB21C4403F8012B11
:102020009C42FBD130BD64461346002CF4D1F9E745
:1020300003461446BFE71A46A446E0E708B410B5C5
:10204000002A04469DB031DB4FF402734FF6FF7C4B
:10205000ADF814300291069120AB15D0013A0492EC
:10206000079202A91F9A0193ADF816C000F0D4F8A8
:10207000421C01DA8B2323600022029B1A701DB0E0
:10208000BDE8104001B070470492079202A91F9A60
:102090000193ADF816C000F0BFF8431C01DA8B23A2
:1020A00023601DB0BDE8104001B070478B234FF096
:1020B000FF302360F5E700BF0CB410B51E4B0029BC
:1020C0001C689CB033DB4FF402734FF6FF7CADF815
:1020D0001430029006901FAB16D001391E9A04915D
:1020E0000791204602A90193ADF816C000F094F8BC
:1020F000421C01DA8B2323600022029B1A701CB061
:10210000BDE8104002B070470491079120461E9A26
:1021100002A90193ADF816C000F07EF8431C01DA65
:102120008B2323601CB0BDE8104002B070478B23A6
:102130004FF0FF302360F5E7080000200CB430B505
:102140000C466FF000459DB00A4A20AB059253F84B
:10215000042B02A9CDE9013407950495069400F0FB
:102160005BF80022029B1A701DB0BDE8304002B03F
:10217000704700BF0802FFFF0EB430B504466FF091
:1021800000459CB00B4A1FAB0B49059253F8042B3A
:10219000086802A9CDE9013407950495069400F07A
:1021A0003BF80022029B1A701CB0BDE8304003B01F
:1021B000704700BF0802FFFF0800002020F0030165
:1021C00010F00300C0F1000051F8043B00F1040CD2
:1021D0004FEACC0C6FF000021CBF22FA0CF2134342
:1021E0004FF0010C4CEA0C2C4CEA0C4CA3EB0C020B
:1021F00022EA030212EACC1204BF51F8043B043075
:10220000F4D0C2F1000102EA0102B2FA82F2C2F194
:102210001F0200EBD20070472DE9F04FBFB0884697
:102220009146CDE90D0302F0DFFA036818461593D5
:10223000FFF7C4FFB8F80C301490180604D5D8F88E
:102240001030002B00F0D08600232EAA19469246AB
:10225000CDE922332192129300220023CDE91023ED
:10226000139116910A9199F80030002B00F08081AB
:102270004C4604E014F8013F002B00F0C780252BEA
:10228000F8D1B4EB090540F0C5802378002B00F0AD
:102290006F8100234FF0FF3218469B466578099204
:1022A00004F101098DF867300B9309F10109A5F1DB
:1022B0002002582A00F2D580DFE812F04C02D30049
:1022C000D3005202D300D300D300D300D300D300F5
:1022D00000024702D3000A020F02D3004202590053
:1022E0005900590059005900590059005900590026
:1022F000D300D300D300D300D300D300D300D30046
:10230000D300D30029026401D3006401D300D300B9
:10231000D300D3005702D300D3007900D300D300F9
:10232000D300D300D3006800D300D3006A02D300E7
:10233000D300D300D300D300D300D300D300D30005
:10234000D3005C02C4016401640164018B02C40116
:10235000D300D3000003D300EA027B00CE02C902FF
:10236000D300A702D3006A00D300D300900200215B
:10237000A5F1300219F8015B01EB810102EB41018B
:10238000A5F13002092AF5D90B9190E74BF0100B1B
:102390001BF0200100F048810E9B073323F0070358
:1023A0001A4652F8080B59680E9201230FE04BF0C1
:1023B000100B1BF0200100F02A810E9B073323F045
:1023C00007031A465968002352F8080B0E9200249E
:1023D0008DF86740099A561C00F07F822BF080062A
:1023E000079650EA010640F07682002A40F0FE820D
:1023F000002B40F007851BF001030C9300F0918542
:1024000030230DF1B7068DF8B7308BE2B4EB090538
:1024100000F0AE80239BCAE900952B442393229BB6
:102420000133072B229305DC0AF1080A0A9B2B448F
:102430000A932AE741460D9821AA03F015FA18B924
:102440000DF1B80AF2E7B046B8F80C3013F0400FBF
:102450000A9B18BF4FF0FF330A930A983FB0BDE8BC
:10246000F08F002B40F0CF87002D00F081800023FB
:102470008DF8673001238DF89050089324AE0C93AB
:102480000023CDF81CB009930F93079B13F00203B0
:1024900002D0089A02320892079A12F0840B05D1F2
:1024A0000B9A0899571A002F00F39583239C9DF8E7
:1024B000672082B10122CAF80420229A0134013235
:1024C0000DF16701072A23942292CAF8001000F345
:1024D000DA830AF1080A7BB10223CAF80430229B8E
:1024E000023401331AAA072B23942293CAF800203E
:1024F00000F3BD830AF1080ABBF1800F00F092825D
:10250000099B0C9AA3EB020BBBF1000F00F3CD82E9
:10251000079BDF0500F10F820C9BCAF800601C448A
:10252000CAF80430229B23940133072B229300F333
:1025300046830AF1080A079B5B0705D50B9B089A9F
:102540009D1A002D00F3AD83DDE90A3208998A4215
:10255000ACBF9B185B180A93002C40F0E18200236B
:10256000229399F800300DF1B80A002B7FF480AE69
:10257000239B002B3FF468AF41460D9821AA03F03E
:1025800073F961E7002B40F0EA870E9B073323F0D5
:102590000702F2E80234CDE91034DDE9103424F00A
:1025A00000441E4618460E9221464FF0FF32B34BB0
:1025B00006F02AFC002840F0B684304621464FF051
:1025C000FF32AE4B06F002FC002840F0AC84DDE99F
:1025D00010010022002306F0EFFB002840F0EB86FC
:1025E0009DF86740032200212BF08003A44E07933F
:1025F000A44BCDE90821472DC8BF1E460C920F9170
:10260000002C3FF442AF089B013308933DE71BF0D9
:10261000100348D11BF0400145D00E9A194652F8DC
:10262000040B0E9280B2D2E61BF010030E9A40D13A
:102630001BF040013DD052F8040B19460E920123C5
:1026400080B2C4E6002B40F086871BF0200F0E9B63
:1026500066D0073323F007031A465B6852F8080B6D
:1026600019460E92002BC0F23384099B013300F00F
:1026700070852BF08003079350EA01039DF86740B3
:1026800000F0BC83DDF81CB00A2871F1000380F073
:102690000185012330308DF8B700CDF81CB00C93C4
:1026A0000DF1B7063EE10E9B53F8040B0E930B465B
:1026B0008DE652F8040B01230E9288E60E9A52F82A
:1026C000041B00290B910E9247DA0B9A52420B928F
:1026D00099F800504BF0040BE7E5494611F8015B0F
:1026E0002A2D00F0C187A5F13002092A894698BF3A
:1026F000002100F24F8719F8015B01EB810102EB29
:102700004101A5F13002092AF5D90991CFE5002B45
:1027100040F01A874BF0100B1BF0200F0E9B98D146
:1027200053F8040B1BF0100F0E9340F0CC831BF0FA
:10273000400F00F0C88340F3C0310B4600B291E770
:1027400099F800504BF0800BAFE501232B2099F84E
:102750000050AAE5002800F02B8499F80050A4E569
:1027600099F800504BF0010B9FE599F800504BF0A1
:10277000080B9AE5002201210E9B8DF8672053F883
:10278000042B08918DF890200E9324AE0C9177E6DF
:10279000002B40F0E8863C4B1BF02001139325D022
:1027A0000E9B073323F00703596853F8080B0E9369
:1027B0001BF0010F0BD050EA010308D030238DF835
:1027C00069508DF868304BF0020B0223FFE50223BD
:1027D000FDE599F800504BF0400B66E5002B40F00A
:1027E000AB862A4B1BF020011393D9D11BF01003A9
:1027F00040F064831BF0400100F060830E9A19469C
:1028000052F8040B0E9280B2D2E700270E9C099B6F
:1028100054F8046B8DF86770002E00F0D3845A1CB6
:1028200000F01A841A463946304602F08BFA002826
:1028300000F07686831B0C9323EAE3730E940997CA
:102840009DF86740CDF81CB008930F97D8E699F82B
:1028500000504BF0200B28E5302278250E9B8DF898
:10286000682053F8040B094A0E93002102234BF011
:10287000020B8DF869501392A9E500BFFFFFEF7FAF
:10288000F0E00008F4E0000814E1000800E10008AE
:10289000002B40F055861BF0200F40F08F831BF07B
:1028A000100F40F0E9831BF0400F00F0E5830E9B12
:1028B0000A9953F8042B11800E93D4E499F8005030
:1028C0006C2D03BF99F801504BF0200B09F1010961
:1028D0004BF0100BE9E4DDF81CB0012B3FF4D4AE53
:1028E000022B00F08B802EAE00F00703C00840EAF8
:1028F0004170C908303350EA0107324606F8013DFD
:10290000F2D11BF0010F00F08780302B00F08480A3
:102910003023023A06F8013C16462EAB9B1ACDF83E
:102920001CB00C93099B0C9A9342B8BF13460893B2
:1029300000230F9364E6652D40F3FB80DDE9100171
:102940000022002306F02EFA002800F0E481012383
:10295000CAF80430229BA84A01330134072B239480
:102960002293CAF8002000F306840AF1080A1B9B90
:10297000129A934203DB079BD8077FF5DCAD149BCB
:10298000159A1C44CAE90023229B23940133072B88
:10299000229300F30A840AF1080A129B5D1E002D9F
:1029A0007FF7C9AD102D40F3D8831026229B934F9B
:1029B000DDF834B005E00AF1080A103D102D40F3AF
:1029C000CE8301331034072BCAE90076CDE92234D7
:1029D000F1DD4146584621AA02F046FF00287FF467
:1029E00033ADDDE922340DF1B80AE6E7012B00F042
:1029F0005B85022BDDF81CB07FF475AF139A2EAE09
:102A000000F00F03D35C000940EA0170090906F8E1
:102A1000013D50EA0103F3D12EAB9B1BCDF81CB056
:102A20000C937FE70B9B089AA3EB020BBBF1000F03
:102A30007FF766ADBBF1100F40F3B385214610233D
:102A4000229A6E4F0D9C06E0ABF1100BBBF1100FFC
:102A50000AF1080A1ADD01321031072ACAE90073A7
:102A6000CDE92221F0DD4146204621AA02F0FCFEFC
:102A700000287FF4E9ACDDE92221ABF1100BBBF1BA
:102A8000100F4FF010030DF1B80AE4DC0C460132D0
:102A90005C44072ACDE92224CAF80070CAF804B0C1
:102AA00000F376830AF1080A2AE5BBF1100F40F320
:102AB0006D8421461023229A504F0D9C06E0ABF105
:102AC000100BBBF1100F0AF1080A1ADD01321031A8
:102AD000072ACAE90073CDE92221F0DD41462046EC
:102AE00021AA02F0C1FE00287FF4AEACDDE922216C
:102AF000ABF1100BBBF1100F4FF010030DF1B80A42
:102B0000E4DC0C4601325C44072ACDE92224CAF8F1
:102B10000070CAF804B000F3C4810AF1080AF7E4AF
:102B200041460D9821AA02F09FFE00283FF417AD00
:102B30008AE4129B012B40F36A810123229D013418
:102B40001D44072DCAF800602394CAF8043022956A
:102B500000F3C8810AF1080A149B0135159A1C4438
:102B6000072DCAE90023CDE9225400F3CD810AF1F3
:102B7000080A0022DDE91001002306F013F90028FD
:102B800040F06381129B0135013B01361C44072D47
:102B9000CAF800602295CAF80430239400F34881F3
:102BA0000AF1080A169B01351C44CAF80430072DA7
:102BB0001DABCDE92254CAF800307FF7BAAC4146CC
:102BC0000D9821AA02F050FE00287FF43DAC239C12
:102BD0000DF1B80AAFE4102F40F39E84DDE9222105
:102BE0001793102453460846CA46B1464646B8468F
:102BF0002F460D9D0BE000BF30E10008E4D900082E
:102C0000A8F11008B8F1100F03F1080318DD013224
:102C1000BB491030072AC3E90014CDE92220EFDDBB
:102C20003146284621AA02F01FFE00287FF40BAC93
:102C3000DDE92220A8F11008B8F1100F2EABE6DC78
:102C400001463D464746B0464E46D1469A46179BFA
:102C50007C180132AA49072ACDE92224CAF8047057
:102C6000CAF8001000F366820AF1080A1FE4414620
:102C70000D9821AA02F0F8FD00287FF4E5AB239C13
:102C80000DF1B80A38E441460D9821AA179302F0D5
:102C9000EBFD00287FF4D8AB239C179B0DF1B80AFD
:102CA00019E4102D40F354841026229B0D9F04E05C
:102CB000103D102D0AF1080A17DD0133904A103437
:102CC000072BCAE90026CDE92234F1DD414638461A
:102CD00021AA02F0C9FD00287FF4B6ABDDE9223459
:102CE000103D102D0DF1B80AE7DC0133844A2C4465
:102CF000072BCDE92234CAF80450CAF800207FF728
:102D000023AC41460D9821AA02F0AEFD00287FF4C5
:102D10009BAB239C18E41B99002940F3D781129F99
:102D20000F9B9F42A8BF1F46002F0BDD229B3C44F8
:102D30000133072BCAE900672394229300F3CB8366
:102D40000AF1080A0F9D002FA8BFED1B002D00F30C
:102D50005B811B9D129B9D4280F23A81149B159AC8
:102D60001C44CAE90023229B23940133072B22939E
:102D700000F326830AF1080A129B0F9A5D1B9F1A23
:102D8000AF42A8BF2F46002F0EDD229B1644013311
:102D90003C44072BCAF80060CAF8047023942293BD
:102DA00000F3A5830AF1080A002FA8BFED1B002D30
:102DB0007FF7C1AB102D40F3D0811026229B514FDD
:102DC000DDF834B005E00AF1080A103D102D40F39B
:102DD000C68101331034072BCAE90076CDE92234CD
:102DE000F1DD4146584621AA02F03EFD00287FF45D
:102DF0002BABDDE922340DF1B80AE6E7099B002B85
:102E000040F0528300232EAE09930C938AE5079B72
:102E1000DA073FF592AE0123229D01341D44072DB0
:102E2000CAF800602394CAF8043022957FF7B8AE40
:102E300041460D9821AA02F017FD00287FF404AB4B
:102E4000DDE922540DF1B80AACE6129B5E1E002E9D
:102E50007FF7A8AE102E40F30284CDF824904FF0F7
:102E6000100BC146274FDDF8348005E00AF1080A4F
:102E7000103E102E40F3E38101351034072DCAE9CE
:102E8000007BCDE92254F1DD4946404621AA02F0FB
:102E9000EBFC002840F08283DDE922540DF1B80AF2
:102EA000E6E741460D9821AA02F0DEFC00287FF4F7
:102EB000CBAA239C0DF1B80AFFF72ABB0E9B53F84F
:102EC000040B0E9374E4C1170B46002BBFF6CDAB79
:102ED0002D2440424FF0010361EB41018DF8674022
:102EE000FFF778BA41460D9821AA02F0BDFC0028F0
:102EF0007FF4AAAADDE922540DF1B80A2CE600BF3E
:102F0000D4D90008E4D9000841460D9821AA02F05E
:102F1000ABFC00287FF498AADDE922540DF1B80A31
:102F200027E62EAEFEE4DDE9100102460B4605F071
:102F30006BFF002840F07183099B013300F0E682AB
:102F400025F02003472B0C9300F09E80DDE9101242
:102F50004BF48073171E0793C0F23F82109B0893B7
:102F600000231793662D00F07981462D00F07681BD
:102F700002210C9B0091452B08BF099B1FA918BF7C
:102F8000099C04911CA908BF5C1C03911BA93B462A
:102F9000089A0D980194029100F0C0FC672D064636
:102FA00040F08F821BF0010F00F0A08134446CE1EF
:102FB0000123202099F80050FFF777B90E9B0A985B
:102FC00053F8041BC217C1E900020E93FFF74BB977
:102FD000079BD9073FF5C2AE129B0F9A5D1B9F1A44
:102FE000AF42A8BF2F46DFE640210D9801F004FC58
:102FF000C8F80000C8F81000002800F04D834023F6
:10300000C8F81430FFF720B9102D40F32A83B44FCD
:1030100009963A464FF0100B4746229B90460D9E6C
:1030200005E00AF1080A103D102D40F3B381013389
:103030001034072BCAE9008BCDE92234F1DD394683
:10304000304621AA02F010FC002840F0C782DDE9DA
:1030500022340DF1B80AE6E730460E940997CDF810
:103060001CB0FFF7ABF820EAE0739DF867400C90C6
:103070000F970893FFF7C4BA0E9B0A9953F8042BD5
:1030800011600E93FFF7EFB8099B002B08BF0123D7
:1030900009935BE72EAE07950A22002307460D46EB
:1030A000FEF73AFD3032002306F8012D3846294656
:1030B0000A22FEF731FD0A2F75F10003ECD22EAB88
:1030C0009B1B079D0C93CDF81CB02BE40123CAF881
:1030D0000430229B834A01330134072B239422932B
:1030E000CAF8002000F380810AF1080A002972D191
:1030F000079B129A03F0010313433FF41CAA149B8D
:1031000015991A19CAE90013229B23920133072B40
:10311000229300F37C810AF1080A129901338C187A
:10312000072BCDE92234CAF80060CAF804107FF7F3
:1031300000AA44E541460D9821AA179302F094FB9A
:1031400000287FF481A9239C179B0DF1B80AFFF793
:10315000AEB99DF86740FFF797BA229B604F0133E5
:103160002C44072BCAF80070CAF80450CDE9223469
:103170007FF7DFA923E541460D9821AA02F074FBF1
:1031800000287FF461A9239C0DF1B80AFFF7EFBB7B
:1031900041460D9821AA02F067FB00287FF454A94C
:1031A000239C0DF1B80AFFF7ABB941460D9821AA4F
:1031B00002F05AFB00287FF447A9239C0DF1B80ABE
:1031C000FFF7EBBB062B28BF0623474E0C930E944C
:1031D0000893FFF755B9149B15981A19CAE900030B
:1031E000229B23920133072B229300F310810AF1D3
:1031F000080A002991DA4D42103180F2D68110245C
:10320000374FDDF834B005E00AF1080A103D102D03
:1032100040F3CC8101331032072BCAE90074CDE9A9
:103220002232F1DD4146584621AA02F01DFB00285A
:103230007FF40AA9DDE922320DF1B80AE6E7C846B3
:10324000DDF8249001353444072DCDE92254CAF825
:103250000070CAF804607FF7A3ACE9E50321DDE95B
:10326000082400911FA904911CA903911BA93B46A6
:1032700001940D98029100F051FB06463378041931
:10328000302B00F0AE811B9B1C44394600220023EA
:10329000089805F087FD002840F0B3801F9BA342EB
:1032A00006D230215A1C1F9219701F9B9C42F9D8DC
:1032B0009B1B12930C9B472B1FD0662D40F0F48173
:1032C0001B9B0BF0010B002B0F9340F3F18009992E
:1032D0005BEA010240F093810F9B08930C9323E07B
:1032E000E4D9000830E1000828E100081F9B9B1B7F
:1032F00012930C9B472B40F0D7811B9BD91C0F933B
:103300001DDB099A93421ADC0F9B129A9342C0F27A
:103310002E811BF0010F1EBF0F9B149A9B180C935C
:10332000672523EAE3730893179B002B00F0CD80F9
:103330002D238DF8673000230993FFF764B9023D10
:103340000F9A8DF87450531E002BA8BF2B221B938D
:10335000BCBFC2F101032D22092B8DF8752070DC52
:1033600030338DF8773030238DF876300423169380
:10337000129A169B012A13440C9340F348810C9B2C
:10338000149A134400220C930F92CAE7229ABE4F5C
:10339000FFF7B8BB4246B8461746099E01332C4496
:1033A000072BCDE92234CAF80070CAF804503CDC7F
:1033B0000AF1080ACDE42D248DF86740FFF712B911
:1033C00041460D9821AA02F04FFA00287FF43CA84C
:1033D0001B9D239C0DF1B80ACEE414462D220891C2
:1033E000179204F10047BDE541460D9821AA02F06D
:1033F0003BFA00287FF428A81B99239C0DF1B80AFA
:1034000074E6234654E78DF86700FFF72DB8414670
:103410000D9821AA02F028FA00287FF415A8DDE90A
:1034200022321B990DF1B80AE3E641460D9821AA14
:1034300002F01AFA00287FF407A8239C0DF1B80ABD
:1034400087E40DF1830C6246904F1C46104687FBC3
:103450000312D917C1EBA20101EB8102A3EB4202D7
:103460003032632C00F8012C0B4600F1FF32ECDC0B
:103470003033D9B2831E9C4502F8011C40F2008112
:1034800013460DF1760201E013F8011B9C4502F88A
:10349000011BF9D10DF185030DF176021B1A1344BE
:1034A0001DAA9B1A169363E7DDF81CB0FFF7F1B86D
:1034B000099A5BEA020340F0CA80012308930C9347
:1034C00032E7472D3FF46EAD70E5179B9DF86740DE
:1034D0000993FFF795B841460D9821AA02F0C4F967
:1034E00000287EF4B1AF239C0DF1B80A2AE44146CE
:1034F0000D9821AA02F0B8F900287EF4A5AF1B9D13
:10350000129B239C0DF1B80A5D1B4DE40623099321
:1035100025F020030C9319E5DDE92221FFF798BB84
:10352000099B0E94CDF81CB09DF8674008930C934E
:1035300009900F90FFF764B88DF86700FFF751B955
:103540008DF86700FFF7A7B98DF86700FFF7E2B8BD
:10355000229BFFF7CABB8DF86700FFF776B88DF89E
:103560006700FFF712B88DF86700FFF714B9149AD7
:10357000129B13440F9A0C93002A3FF7D1AE0F9B76
:103580000C9AC3F101031A4422EAE27367250C92F4
:103590000893C9E600220992FEF789BEC846FEF7E5
:1035A00053BF229A384FFFF772BA374F01332A447C
:1035B000072BCDE92232CAF80070CAF804507FF711
:1035C000AAAD41460D9821AA02F04EF900287EF4DA
:1035D0003BAFDDE922320DF1B80A9EE5B846FEF7B1
:1035E00033BF394600220023089805F0DBFB002892
:1035F0007FF449AE099BC3F101031B9344E6149A7F
:103600001344194421EAE1730C9108938CE61BF0F2
:1036100001020F927FF4B3AE83E6119B0322002BCD
:10362000B8BF2D244FF000012BF08003184E0793F4
:10363000184BACBF9DF867408DF86740CDE9082175
:10364000472DC8BF1E460C920F91FEF7D9BF149BA1
:1036500001331A4422EAE2730C92089364E60A4F9B
:10366000F0E5229B084F99E60E9A99F80150894699
:1036700052F8041B0E9241EAE1720992FEF715BE60
:103680000223169374E600BFE4D9000867666666F5
:10369000F8E00008FCE000084FF0FF320C230A922B
:1036A0000D9A1360FEF7D9BE1B9B0F9348E600BF2F
:1036B00010B5194C002924689AB028DB00900490BA
:1036C0004FF402704FF6FF7CADF80C0011D00139B9
:1036D0000291059120466946ADF80EC0FEF79CFDAB
:1036E000421C01DA8B2323600022009B1A701AB05F
:1036F00010BD0291059120466946ADF80EC0FEF757
:103700008BFD431C01DA8B2323601AB010BD8B2381
:103710004FF0FF302360F8E70800002030B5144672
:10372000002C05469BB029DB1A464FF402734FF676
:10373000FF7C00910491ADF80C3011D0013C69463A
:103740001E9B02940594ADF80EC0FEF765FD421C69
:1037500001DA8B232B600022009B1A701BB030BD56
:103760001E9B694602940594ADF80EC0FEF754FD09
:10377000431C01DA8B232B601BB030BD8B234FF031
:10378000FF302B60F8E700BF70B5174C2568D5F8FF
:103790004841DCB165681F2D23DC80B14FF0010C7E
:1037A00004EB850ECEF88820D4F888610CFA05F277
:1037B00016430228C4F88861CEF808310BD06B1C80
:1037C00002356360002044F8251070BD05F5A6742D
:1037D000C5F84841DEE7D4F88C311343C4F88C3186
:1037E000EDE74FF0FF3070BDD0D9000800000000B9
:1037F0002DE9F04F03690C6985B0A342C0F28980BE
:10380000013C01F11405A30000F11408019355F8DF
:10381000243058F8242001338A469A4208EB840168
:103820008146B2FBF3F605EB840702913AD30021FF
:10383000AE4640460A46A34603955EF8045B04681C
:10384000ABB206FB03132D0C190C06FB05119BB242
:10385000D21A1FFA84FC94448AB2C2EB144202EBDF
:103860002C421FFA8CFC4CEA0243774540F8043B9B
:103870004FEA11414FEA2242DFD2019B5C4658F8E1
:103880000330039D73B9029B043B984504D307E0C2
:10389000984504F1FF3403D253F80429002AF7D0E5
:1038A000C9F810405146484601F06EFD00282CDB57
:1038B00040460023013655F8041BD0F800C08AB2F8
:1038C0009A1A1FFA8CFE0B0C7244C3EB1C4303EBD9
:1038D000224392B242EA0342AF4240F8042B4FEA3D
:1038E0002343E8D258F8242008EB84036AB9043B48
:1038F000984504D307E0984504F1FF3403D253F808
:103900000429002AF7D0C9F81040304605B0BDE8B8
:10391000F08F002005B0BDE8F08F00BF2DE9F04F1B
:1039200090469946016C99B00446CDE90489259DDD
:1039300041B10123426C93408B604A6001F074FAFC
:1039400000232364B9F1000AB4BF012300232B60D4
:10395000754BBCBF2AF0004ACDF814A033EA0A0325
:1039600000F0AA80DDE90423104619460022002356
:10397000CDE90A0105F016FA074670B10123249A31
:103980001360269B002B00F0E48268481860431EF9
:103990000393039819B0BDE8F08F16AB019317ABF2
:1039A00000932046DDE90A2301F03EFE5FEA1A5645
:1039B000054640F09780DDE916763E4406F2324037
:1039C000202840F3B583C0F140000AFA00FA06F25D
:1039D000124028FA00F04AEA0000FDF791FA0123AC
:1039E000013E0F93A1F1F8710022514BFDF74AF906
:1039F00047A3D3E90023FDF7FDFA47A3D3E900234A
:103A0000FDF742F9804630468946FDF789FA44A31E
:103A1000D3E90023FDF7EEFA02460B46404649463D
:103A2000FDF732F98046894605F004FA0022834604
:103A300000234046494605F0BFF9002840F07C824B
:103A4000BBF1160F00F26B82DDE90A01394B03EB83
:103A5000CB03D3E9002305F0AFF9002870D0002391
:103A6000BE1B0E93731E0BF1FF3B069300F15E82AB
:103A700000230993BBF1000F69DA099BCDF81CB054
:103A8000A3EB0B030993CBF100030D93229B4FF0A3
:103A9000000B092B64D8052B40F348830026043B18
:103AA0002293229B023B032B00F26A86DFE813F08D
:103AB0005F045C045304360442F20F73249ACAF381
:103AC000130A13605AEA08031AD1269B002B00F050
:103AD0006686194B03930833269A0398136019B02E
:103AE000BDE8F08FDDE90A12C2F31303084643F084
:103AF0007F510F97A6F2FF36169F41F4401173E7EE
:103B0000269B002B40F0ED830C4B039341E700BF55
:103B100061436F63A787D23FB3C8608B288AC63FD3
:103B2000FB799F501344D33F0000F07F31E1000840
:103B30000000F83F08DA000838E1000834E1000826
:103B4000BE1B731E069300F18A840E900990069B9B
:103B50005B44CDE9063B00230D93229B092B9AD9A8
:103B6000002322934FF0FF330126089300230C9685
:103B700023930021089B61641293204601F02EF9E3
:103B80000390002800F00486039B2364089B0E2BFF
:103B900000F21481002E00F011810799002940F3F2
:103BA0006084AF4B01F00F0203EBC2030A46D3E976
:103BB00000674FEA2118D10540F11784DDE90A01B9
:103BC000A84B4FF0030AD3E90823FDF73DFBCDE9ED
:103BD000100108F00F08B8F1000F13D0DFF884923D
:103BE00018F0010F09D0D9E9002330463946FDF716
:103BF00001FA06460F460AF1010A5FEA680809F170
:103C00000809EDD1DDE9100132463B46FDF71CFB0A
:103C1000804689460E9B43B1002240464946924B5E
:103C200005F0CAF8002840F035855046FDF778F9D0
:103C300042464B46FDF7DEF98C4B0022FDF724F897
:103C4000A1F15073CDE910011193089B002B00F0F6
:103C50009780079B1493089B13930C9B002B00F0F9
:103C6000A984139A7E4B002003EBC20353E902237D
:103C70007F49FDF7E9FADDE91023FDF703F8CDE907
:103C800010014946404605F0D5F80746FDF748F9CA
:103C900002460B4640464946FCF7F4FFDDE9102397
:103CA000039E303706F8017B8046894605F084F88C
:103CB000002840F02E85CDF854B00027DDE910AB88
:103CC0001095139D13942AE00137AF4280F22E85A0
:103CD000504659460022674BFDF78CF90022654B90
:103CE00082468B4640464946FDF784F98946804620
:103CF00005F0A0F80446FDF713F902460B464046CE
:103D00004946FCF7BFFF303452465B4606F8014B8C
:103D10008046894605F050F8002840F0F884424675
:103D20004B4600205049FCF7ADFF52465B4605F07C
:103D300043F80028C8D0DDE91343109D039A079388
:103D400002E0964200F0CD84B24616F8013D392BD0
:103D5000F7D00133DBB23370079B01330793C8E11F
:103D60005046FDF7DDF842464B46FDF743F93F4B21
:103D70000022FCF789FFA1F15073CDE910011193E6
:103D80004046494600223C4BFCF77CFFDDE91089A8
:103D90004B46424606460F4605F02CF88146002861
:103DA00040F0AF84DDE91001024601F100433046E6
:103DB000394605F001F8002840F04883179B002B96
:103DC000C0F28C80079A0E2A00F38880244B03EB04
:103DD000C203D3E900AB239B002B1BDA089B002B0B
:103DE00018DC40F031830022234B50465946FDF742
:103DF00001F902460B46DDE90A0104F0E7FFDDF8B0
:103E000020904E46002800F0CA82239BDDF80C80EB
:103E1000DF43CCE25246DDE90A785B46384641464C
:103E2000FDF712FA05F006F881460990FDF778F8DB
:103E300052465B46FDF7DEF8039E0B4602464146BE
:103E40003846FCF71FFF09F1300306F8013B089BD9
:103E5000012B00F05F83069401271C4604952AE09D
:103E600008DA0008F8DA00080000F03F00001C4003
:103E70000000E03F000024400000144052465B4632
:103E800040464946FDF7E0F904F0D4FF0546FDF74A
:103E900047F852465B46FDF7ADF801370B46024640
:103EA00049464046FCF7EEFE05F13003A74206F80E
:103EB000013B00F02C830022AB4BFDF79BF8002266
:103EC00000238046894604F06DFF0028D6D0049D6B
:103ED000069C079BB246013307930AE10C9A002A1D
:103EE0003DD0229A012A40F39F82089B03F1FF38BC
:103EF0000D9B4345C0F27082A3EB0808089B002B82
:103F0000C0F24083069A1A440692099A17461A4448
:103F100009920121204601F089F8064623E0012399
:103F2000BE1B0E93731E06937FF5A2ADC6F101036F
:103F30000993002306939DE55846FCF7F1FF42469E
:103F40004B4604F02FFF00287FF47AAD0BF1FF3BC6
:103F500076E5864B0393039819B0BDE8F08FDDF842
:103F60003480099F0C9E002F0CDD069900290B461A
:103F700008DDB942A8BF3B46099AFF1AD21ACB1AEC
:103F8000099206930D9BE3B10C9B002B00F060821D
:103F9000B8F1000F10DD31464246204601F022F90B
:103FA00006462A463146204601F06EF80346294669
:103FB00020461D4600F038FF0D9BB3EB080240F091
:103FC000DB820121204601F031F8BBF1000F814670
:103FD00000F3B380229B012B40F388814FF0000A4D
:103FE0000120BBF1000F40F0B480069A104410F09D
:103FF0001F0000F09280C0F12003042B40F3D38314
:10400000099BC0F11C000344024409930744069233
:10401000099B002B05DD29461A46204601F03EF992
:104020000546069B002B05DD49461A46204601F051
:1040300035F981460E9B002B40F03881089B002B00
:1040400040F31E810C9B002B40F09F80079B0133A7
:1040500007930127DDF80C80DDF820A007E0294652
:1040600000230A22204600F0E9FE054601374946B2
:104070002846FFF7BDFB574500F1300308F8013B28
:10408000EDDB089A0027002ACCBF93464FF0010BC6
:10409000039A9344294601222046049301F0FEF836
:1040A0004946054601F070F9002840F3AB811BF842
:1040B000013C039A0BF1FF3B04E05A4500F0AD814F
:1040C0001BF8013D392B0BF1010AF6D001338BF8B7
:1040D00000304946204600F0A7FE56B12FB1B74246
:1040E00003D03946204600F09FFE3146204600F0BE
:1040F0009BFE2946204600F097FE0023079A8AF887
:104100000030249B1A60269B002B3FF442AC03989E
:10411000C3F800A019B0BDE8F08F1C20099B07442C
:1041200003440993069B0344069371E70126B8E410
:10413000C0F1200008FA00F04FE401465A4620463C
:1041400001F050F8229B8146012B40F3B6814FF0DD
:10415000000AD9F8103009EB8303186900F01AFF40
:10416000C0F1200041E700BF0000244030E100081A
:10417000314600230A22204600F060FE129B0646CC
:10418000002B40F3E982CDE90783002F00F31D8166
:10419000BAF1000F40F0D981B046049B089903F0B2
:1041A0000102039B0A921F46013B1944229B08917E
:1041B0001343099349462846FFF71AFB31468346C5
:1041C000284601F0E1F8424649468246204601F081
:1041D000FBF8C26801460BF13003002A43D104907A
:1041E0002846069301F0D0F802460499204604922E
:1041F00000F01AFE049A069B1AB90999002900F0EA
:104200009B82BAF1000FC0F2648122994AEA010A46
:104210000A9951EA0A0100F05C81002A00F3B68194
:10422000089A07F1010A9742D3463B7000F0B48127
:10423000294600230A22204600F000FE4645054696
:1042400031464FF000034FF00A02204612D000F032
:10425000F5FD4146064600230A22204600F0EEFD09
:1042600057468046A6E72046049300F0DDFD012274
:10427000049BC6E700F0E2FD57460646804699E7F4
:10428000229B022B7ADC0C9B002B7FF47EAF079BDA
:104290004946013328460793FFF7AAFADDF80CB028
:1042A00000F1300300270BF8013BF3E649462846AE
:1042B00001F06AF80028BFF6C1AE294600230A22A1
:1042C000204600F0BBFD079B054603F1FF380C9B21
:1042D000002B7FF44DAF129B002B40F334820893E8
:1042E000B7E6B04B03930333FFF7F6BBDDE90412E7
:1042F00000297FF473AEC2F31303002B7FF46EAE7C
:10430000A94B1340002B00F00082099B4FF0010ADB
:1043100001330993069B0133069361E601230C9355
:10432000239B079A134412930133012B1F46B8BFF6
:10433000012708930021172F61647FF71EAC01222B
:1043400004235B0003F11400B842114602F101029C
:10435000F7D9616411E401230C93239B002B4CDDFE
:104360001F4612930893E5E700230C93D8E7002338
:104370000C93F2E7129BCDF81C800893089B002B4E
:104380007FF443AD49460522204600F057FD8146A3
:104390002846494600F0F8FF00287FF736AD312364
:1043A0000398079F804600F8013B01370390494678
:1043B000204600F039FD7B1CDDF80CA00793CDF8FA
:1043C0000C80002E7FF491AE93E631463A462046AB
:1043D00000F064FF0646DBE60D9BCDF83480A8EBC9
:1043E00003039B444FF0000888E5DDE90A234FF002
:1043F000020ACDE91023FFF7EEBB012323930893B4
:10440000FFF7B7BB03D1049BD8073FF550AEDA46A0
:104410001BF8013D302BFAD05BE6079B039A013372
:1044200007933123137054E60F9A002A00F0288175
:1044300003F23343069ADDF834801A440692099A4F
:1044400017461A44099264E54FF000094E46DCE431
:10445000294620460D9A00F0C5FE0546B1E50E90AE
:1044600064E500F01181DDE90A01079A4F4B5642DD
:1044700006F00F0203EBC203D3E90023FCF7BAFDF9
:1044800036118046894600F0708100234FF0020A01
:10449000474FF20706D5D7E90023FCF7ABFD012310
:1044A0000AF1010A761007F10807F2D1002B3FF458
:1044B000B1AB80468946FFF7ADBB049B002B7FF470
:1044C00046AEDDE90412C2F31303002B3FF418AF2C
:1044D0003DE6002A12DD294601222046049300F021
:1044E000DDFE4946054600F04FFF0028049B40F3DF
:1044F0001781392B00F0FB800BF13103BA46079A84
:1045000037460132464607920AF8013BE1E5099534
:10451000069C049D02460B46FCF7B6FB52465B46E2
:104520008046894604F066FC60B952465B464046C8
:10453000494604F037FC00283FF4CBAC099BD9076F
:104540007FF5C7AC039AFFF7FFBB2046716800F008
:1045500045FC0746002800F00C81336906F10C0188
:1045600002339A000C30FDF7A1FC394601222046A7
:1045700000F094FE804610E62946204600F032FE08
:1045800005461EE5DDE908239F1AC2E4392B00F039
:10459000AE80BA460133B2E7079A37460132464643
:1045A000079277E534E100080000F07F08DA0008A0
:1045B000F8DA0008DDF84CA08349DDE9102301EBAF
:1045C000CA0151E90201FCF715FDCDE91001494688
:1045D000404604F02FFC0646FCF7A2FC0B460246C0
:1045E00049464046FCF74EFB5346039F3036012BAD
:1045F0008046894607F8016B00F0AC80139E039B50
:104600001E440022714B40464946FCF7F3FC8946A4
:10461000804604F00FFC8246FCF782FC02460B4603
:1046200040464946FCF72EFB0AF1300A07F801AB79
:10463000B74280468946E4D1DDE910010022644B8F
:10464000FCF722FB42464B4604F0B6FB002862D141
:10465000DDE9102300205E49FCF714FB42464B467F
:1046600004F0C8FB00283FF4A9AB16F8013CB246A1
:10467000302B06F1FF36F8D0149B0133079338E551
:10468000169BC3F13603D5E64FF0020ADDE90A892D
:10469000FFF7C0BA089B002B3FF462AB129B002BC4
:1046A0007FF78CAB1393079B0022013B40464946A2
:1046B0001493464BFCF79EFC804689460AF10100A4
:1046C000FCF72EFC42464B46FCF794FC414B002283
:1046D000FCF7DAFAA1F15073CDE910011193FFF75D
:1046E000BCBA079B013307933123FFF734BB079B09
:1046F000BB4601330793392337460BF8013B464647
:10470000D7E44FF000094E4649E69A4668E4109D0A
:10471000139CB246B0E7149B039A0793FFF714BBB0
:104720007FF4ECAEDA077FF5E9AEE2E6DDF854B0EF
:10473000109D139CFFF742BB392BD8D0BAF1000F64
:104740003FF7DAAEDAE6229B022B3FF713AECDF845
:104750001C809CE53E466FE7229B022B3FF70AAE8A
:10476000129BCDF81C8008930FE54FF0020AFFF76B
:1047700051BA024640F2EA21174B184801F032FEC6
:10478000002620463146666400F028FB039078B985
:1047900000224FF4D571104B104801F023FE104B4E
:1047A0000393FFF7F6B83FF433ACC0F13C00B5E437
:1047B000039B012223644FF0FF33239612930C9244
:1047C0000893FFF7FBBA00BF08DA00080000244096
:1047D0000000E03F00001C4044E1000858E10008F0
:1047E00038E10008F0307047004870473809002071
:1047F00000487047380900202DE9F04F01F10B0502
:10480000162D064683B025D8102900F2B88000F096
:10481000E1FA102518224FF0020CB74F3A445368C2
:10482000A2F108018B4200F0B7805A68D96822F0E3
:1048300003021A449C683046E1608C60516803F1C1
:10484000080441F00101516000F0C6FA204603B0AF
:10485000BDE8F08F35F0070500F19180A94200F224
:104860008E8000F0B7FAB5F5FC7FC0F090816B0A3E
:1048700000F08C80042B00F26681AB0903F1390C47
:1048800003F138044FEACC009B4F384443680838A2
:10489000984206D10CE0002980F22B81DB68984217
:1048A00006D05A6822F00302511B0F29F3DDA446FB
:1048B0003C69DFF848E274457AD0626822F003026E
:1048C000531B0F2B00F37281002BC7E904EE80F21B
:1048D0006381B2F5007F80F015810121D308520970
:1048E0000B4491407A6857F833000A4307EBC30141
:1048F0000839A060E1607A6047F83340C460012164
:104900004FEAAC039940914259D8114206D12CF09C
:10491000030C490011420CF1040CFAD007EBCC094E
:1049200048466446D0F80C80404508D118E1002B79
:1049300080F21D81D8F80C80404500F01181D8F834
:10494000042022F00302531B0F2BF0DD08EB0501BE
:1049500045F00105C8F804503046D8E90264F46017
:10496000A66043F00104C7E904114C60C1E902EEFE
:1049700048F8023000F030FA08F1080402E00C2395
:1049800000243360204603B0BDE8F08F4FF4007080
:104990004FF0400C3F2477E7D3689A4208BF0CF1F0
:1049A000020C7FF442AF3C69DFF850E1744584D1DA
:1049B00001217A684FEAAC0399409142A5D9BC68BD
:1049C000636823F00308454503D8A8EB05030F2BC4
:1049D0007FDCDFF82C91D7F80824D9F800300132B9
:1049E0002B4404EB080A00F02B8103F580530F33AE
:1049F00023F47F6B2BF00F0B5946304600F022FF5B
:104A0000411C024600F0EB80824500F2E680D9F8B6
:104A1000041059440B46C9F8041000F04681D7F839
:104A2000081401311BBFA2EB0A0A5344C7F808243B
:104A3000C9F8043012F0070300F00C81C3F108013B
:104A40000A44C3F5805193440831A1EB0B01C1F333
:104A50000B0A514630460192009300F0F3FE421CCF
:104A6000DDE9003200F04781831A03EB0A0BD9F825
:104A700004004BF001030AEB0001BC42BA60C9F824
:104A80000410536000F01D81B8F10F0F40F21B813C
:104A90004FF0050C6368A8F10C0020F0070003F04C
:104AA0000103034363600F2804EB0003C3E901CC57
:104AB00000F2288114465368D9F82C208A42D9F88C
:104AC000302038BFC9F82C108A4238BFC9F83010DE
:104AD00087E0621943F0010345F001056560304647
:104AE000BA600834536000F077F9204603B0BDE89F
:104AF000F08FD9681A449DE6380400204004002055
:104B0000440A0020B2F5206F4FEA52235FD3142BE2
:104B100000F2B28003F15C01C9005B337818795868
:104B20000838884200F08F804B6823F003039342DB
:104B300002D989688842F7D1C8687A68C4E9021046
:104B40008460CC60DBE6142B59D9542B00F29C8096
:104B50002B0B03F16F0C03F16E044FEACC0093E6CC
:104B60000134A30700F108007FF4DCAE53E04446B3
:104B700042445368D8F80C1043F00103536054F8D2
:104B8000083F3046D9608B6000F026F9FAE64FEA1C
:104B9000D50C05F1080240E622445368304643F044
:104BA0000103536000F018F90834EBE6611945F091
:104BB0000105656043F00105C7E904113046C1E90C
:104BC00002EE4D60A35000F007F90834DAE69309CD
:104BD00003F13901C9003833A0E7BC425FD0BC689B
:104BE000636823F0030B5D45ABEB050302D80F2B85
:104BF0003FF76FAF304600F0EFF80024C2E603F154
:104C00005C0C03F15B044FEACC003DE659F808392F
:104C10004B4540F095801CF0030F0CF1FF3CF5D1A3
:104C20007B6823EA01037B60490099423FF6C7AEE7
:104C300011B9C4E6490004341942FBD0A4466DE61C
:104C400003F1100BD8E601229B109A407B681A43AF
:104C50007A6073E702EB0B014942C1F30B0A51463C
:104C600030460193009200F0EDFD431CDDE9002386
:104C70007FF4FAAE9A46FAE6542B27D8130B03F1C9
:104C80006F01C9006E3349E7B3F5AA7F27D8EB0B54
:104C900003F1780C03F177044FEACC00F4E5D9F87E
:104CA00004305B44C9F80430B9E6CAF30B000028AD
:104CB0007FF4B5AEBC6808EB0B0343F001036360FF
:104CC000FAE61446F8E60123536093E7B3F5AA7FAA
:104CD00022D8D30B03F17801C90077331EE740F2E5
:104CE0005452934222D8AB0C03F17D0C03F17C04A7
:104CF0004FEACC00C8E5083B9B444FF0000AABEB01
:104D0000020BB4E604F10801304601F033FCBC6844
:104D1000D9F804106368CFE640F254518B420BD8A7
:104D2000930C03F17D01C9007C33F7E64FF47E70EC
:104D30004FF07F0C7E24A7E54FF47E717E23EDE6D5
:104D40007B6871E75FFA81FC810710D00346511E32
:104D50002AB90AE09A0718460AD0013905D318463D
:104D600013F8012B6245F5D17047002070471146BA
:104D700003290CD80029F8D00346014401E08B42F6
:104D8000F3D0184613F8012B6245F8D1ECE7024640
:104D900010B54CEA0C2444EA04441046036804327B
:104DA0006340A3F1013E2EEA030313F0803F04D1D8
:104DB000043903291046F0D851B10346014401E0FB
:104DC0008B4205D0184613F8012B6245F8D110BD6F
:104DD000002010BD704700BF704700BF38B5C36CDE
:104DE00005460C464BB153F8240080B1026843F8E5
:104DF00024200023C0E9033338BD2122042101F01F
:104E000017FB0346E8640028EDD1002038BD0121DE
:104E1000284601FA04F56A1D920001F009FB0028FA
:104E2000F3D0C0E90145E4E731B1C36C4A6853F8F7
:104E30002200086043F82210704700BF2DE9F041BE
:104E40004FF0000E0E461C460D69074601F1140096
:104E500001680EF1010E8BB202FB0343090C4FEA0D
:104E6000134C02FB01CC9BB203EB0C43754540F89D
:104E7000043B4FEA1C44EBDC3CB1B368AB4207DDBA
:104E800006EB850301355C6135613046BDE8F08194
:104E9000716838460131FFF7A1FF8046A8B1326939
:104EA00006F10C01023292000C30FCF7FFFFFB6CA4
:104EB000726853F82210316043F82260464606EBD0
:104EC000850301355C613561DFE70246B521024BA0
:104ED000024801F087FA00BF44E100088CE10008B5
:104EE0002DE9F8431E46DFF8A0C0174603F108027B
:104EF0008CFB023C092E4FEAE27305460C46C3EBDD
:104F00006C0339DD4FF0010C00214FEA4C0C634576
:104F100001F10101F9DC2846FFF760FF014668B3A3
:104F2000089B092F43614FF00103036112DC09273D
:104F30000A34BE420BDDF61B264414F8013B0A225C
:104F40002846303BFFF77AFFA6420146F5D10846D6
:104F5000BDE8F88304F10909C8463C4418F8013B50
:104F60000A222846303BFFF769FFA0450146F5D1EC
:104F7000A7F108044C44DCE70021CCE70246CE212F
:104F8000024B034801F02EFA398EE33844E1000861
:104F90008CE10008020C12040346CAB910208340B9
:104FA00013F07F4F04BF1B02083013F0704F04BF93
:104FB0001B01043013F0404F04BF9B000230002B54
:104FC00005DB13F0804F00F1010008BF202070477F
:104FD0000020E5E70368024613F0070009D0D9076F
:104FE0001FD498074BBF5B089B0801200220136069
:104FF000704799B209B91020C340D9B209B9083035
:105000001B0A190704BF1B090430990704BF9B083A
:105010000230D90703D45B0800F1010003D013600C
:105020007047002070472020704700BF38B5C36C20
:1050300004460D464BB15868B0B102685A60002270
:1050400001234561C0E9032338BD2122042101F079
:10505000EFF90346E0640028EDD100224FF4A0717F
:10506000074B084801F0BEF91C220121204601F03F
:10507000DFF90028F1D001220223C0E90123DEE795
:1050800044E100088CE100082DE9F04F0E69156934
:105090008846AE42144685B005DB2A46234635468F
:1050A0000C4616469846A3686168AF19BB42B8BF64
:1050B0000131FFF793FE0190002800F08780019BEB
:1050C00003F1140909EB870AD14505D24B460022AA
:1050D00043F8042B9A45FBD808F1140808EB860B1B
:1050E00004F11403D8451A4603EB85055FD22B1B48
:1050F000153B23F0030304331534A54238BF0423C2
:10510000CDE902A7AC461F46924605E0000C29D126
:10511000C34509F1040948D958F8040B85B2002D9C
:10512000F4D056464C46002356F8040B216882B250
:105130001FFA81FE05FB02EE000C0A0C05FB0022A3
:10514000734402EB13429BB243EA0243B44544F872
:10515000043B4FEA1243E7D849F8073058F8040CEB
:10516000000CD5D0D9F80030544619464D460022DF
:105170002688090C00FB06119BB20A4443EA02434D
:1051800045F8043B54F8046B2968360C8BB200FBDD
:105190000633A44503EB12434FEA1342E8D8C34554
:1051A00049F8073009F10409B6D8DDE902A7002F54
:1051B00002DC05E0013F03D05AF8043D002BF9D092
:1051C000019B18461F6105B0BDE8F08F024640F212
:1051D0005D11024B024801F005F900BF44E10008EF
:1051E0008CE1000812F003032DE9F0411446074654
:1051F0002ED10E46A4101CD0BD6C95B3E3074FF022
:10520000000806D4641014D02868A8B10546E30746
:10521000F8D52A4631463846FFF736FFB6B17168F1
:10522000FB6C641053F82120326043F8216006467D
:10523000EAD13046BDE8F0812A4629463846FFF7D4
:1052400023FF28600546C0F80080E0E70646D9E75E
:105250000F4A013B52F823200023FFF7EFFD0646DB
:10526000C8E701213846FFF7B9FD054640B140F2D5
:1052700071230122C0E904230023B8640360BDE761
:1052800002464FF4A071034B034801F0ABF800BF96
:10529000F8D9000844E100088CE100082DE9F04746
:1052A0000C462669A36806EB6216751C9D42904663
:1052B000074649684FEA621904DD5B009D4201F12F
:1052C0000101FADC3846FFF789FD002851D0B9F119
:1052D000000F00F114010FDD0B464FF0000C09F137
:1052E00005024FEA820E00EB820243F804CB9342A0
:1052F000FBD1AEF114031944226904F1140318F030
:105300001F0803EB820C2CD08E464FF0000AC8F128
:1053100020091A6802FA08F242EA0A024EF8042B3F
:1053200053F8042B9C4522FA09FAF2D8ACEB04039B
:10533000153B23F00303043304F11502944538BFF1
:105340000423BAF1000F18BF2E4641F803A0FB6CEE
:105350006268066153F82210216043F82240BDE8DC
:10536000F087043953F8042B9C4541F8042FF9D8F1
:10537000EDE7024640F2D911014B024801F032F844
:1053800044E100088CE1000884460B690069C01AFA
:1053900015D10CF1140C14310CEB830210B401EB99
:1053A000830301E0944508D252F8044D53F8041DDC
:1053B0008C42F7D004D24FF0FF3010BC70477047DA
:1053C000012010BC704700BF2DE9F84F0C6913692C
:1053D0008946E41A002C17467DD101F114061432D7
:1053E00002EB830206EB830301E09E4276D253F880
:1053F000045D52F8041D8D42F7D067D3D9F804102C
:10540000FFF7ECFC002873D0D9F81050C46000F10D
:10541000140426464FF0000A3B6909F1140807F10D
:10542000140E09F1100C08EB85020EEB83095CF8F1
:1054300004BF5EF8041B1FFA8BF353441FFA81FA72
:10544000090CA3EB0A03C1EB1B4101EB23419BB207
:1054500043EA0143F14546F8043B4FEA214AE6D8C6
:10546000A9EB070115391537B94521F0030606F1F7
:10547000040638BF042621F0030138BF0021B044E0
:10548000424526440C4418D93746444654F8041B78
:105490008BB253444FEA234A0AEB11419BB243EAD1
:1054A0000143A24247F8043B4FEA214AEED8541E7A
:1054B000A4EB080424F00304344423B954F8043D55
:1054C000013D002BFAD00561BDE8F88F4B46012461
:1054D000B9461F4692E7F9DB00248FE70021FFF76A
:1054E0007DFC60B101220023C0E90423BDE8F88FF0
:1054F00002464FF41071054B054800F073FF024659
:1055000040F23221014B024800F06CFF44E10008F8
:105510008CE100080F4B0B40A3F15073002B02DD10
:105520000020194670475B42B3F1A07F4FEA235237
:1055300005DA4FF40023002043FA02F17047143AD1
:105540001E2AD6BF4FF00043012223FA02F20021A7
:10555000104670470000F07F2DE9F041076900F127
:10556000140606EB87070C4657F8041CA7F104083D
:105570000846FFF70FFDC0F120030A28236036DD3F
:1055800046451ED2B0F10B0357F8082C26D0C3F1C4
:10559000200C994022FA0CF00843A7F1080140F0D2
:1055A0007F558E4245F440153AD202FA03F057F87F
:1055B0000C3C23FA0CF303431C4620462946BDE865
:1055C000F081B0F10B0308D001FA03F0002340F0A2
:1055D0007F551C4645F44015EFE71A46144641F046
:1055E0007F5545F4401520462946BDE8F081C0F1BD
:1055F0000B0321FA03F2464542F07F552CBF0022EF
:1056000057F8082C45F4401538BFDA4000F115036F
:1056100001FA03F343EA020420462946BDE8F0817B
:1056200002FA03F31C46C8E770B5012182B01646A2
:105630001D46FFF7D3FB044600284CD02B46C5F38C
:105640000A55C3F313030DB143F48013002E0193E5
:1056500022D068460096FFF7BDFC002837D0019B9A
:105660000099C0F1200203FA02F20A43C3400193F9
:105670006261002B14BF02210121A3612161B5B138
:10568000069BA5F2334505441D60079BC0F135001C
:105690001860204602B070BD01A8FFF79BFC0123F3
:1056A000019A1946626120302361002DE8D104EB94
:1056B0008102A0F232431069069A1360FFF76AFC78
:1056C000C0EB41112046079B196002B070BDDDE9B7
:1056D00000236261CDE7024640F20A31014B0248E5
:1056E00000F080FE44E100088CE100082DE9F04361
:1056F00083B0884669468146FFF72EFF04460D4673
:10570000404601A9FFF728FFD9F81030D8F810203B
:105710000F469A1ADDE90063F31A03EB4213002BDC
:105720000CDD05EB035906464D4632463B46204606
:105730002946FBF789FD03B0BDE8F083C3EB0333D3
:1057400001EB035106460F46EFE700BF172870B57F
:1057500006460ADD002000240749084D22462B4654
:10576000FBF748FC013EF9D170BD054B03EBC006C9
:10577000D6E9040170BD00BF0000F03F00002440E6
:10578000F8D9000801F1FF3C116902F114034FEA56
:105790006C1C03EB81010CF1010C8B4200EB8C0CB7
:1057A00016D210B5A0F1040E53F8044B99424EF8EE
:1057B000044FF9D88B1A153B23F003030433184424
:1057C000844504D9002340F8043B8445FBD810BD30
:1057D000844505D9002340F8043B8445FBD8704735
:1057E000704700BF03694A11934200F1140009DABF
:1057F00000EB830302E053F8042DC2B98342FAD8C8
:105800000020704710DD11F01F010DD010B450F8CA
:10581000224000EB820324FA01F202FA01F18C42E9
:105820000BD0012010BC704700EB8203E6E701209B
:10583000704753F8042D002AF3D18342F9D8002091
:1058400010BC7047002238B5064D044608462A6051
:1058500003F050FB431C00D038BD2B68002BFBD05D
:10586000236038BD780A00202DE9F04F93689146F7
:1058700083B0002B6ED0176880460C4608688D6890
:10588000083744E0B4F80CC01CF4906F2ED0D4E973
:105890000413451A03EB430303EBD373AA194FEA2E
:1058A000630A531C5345524684BF9A4652461CF421
:1058B000806F36D011464046FEF79EFF00283AD052
:1058C0002A4621690190FCF7F1FAA289019B22F492
:1058D000906242F08002A2815819AAEB0505A560EA
:1058E000C4F814A03546B24623612060594652469A
:1058F00000F0A6FFD9F80830A16820684D1B50447D
:105900009E1BA5602060C9F808601EB3083757E9E0
:1059100002B6002EFAD0B542AA46B3D93546B246F1
:10592000E4E7404601F008F803460028D4D1404699
:10593000216900F01FFE0C2300224FF0FF30C8F851
:105940000030A38943F04003A381C9E9012203B0D9
:10595000BDE8F08F00231846C9F8043003B0BDE855
:10596000F08F00BF2DE9F04FABB006938B8917463F
:105970001A068846834603D50B69002B00F0A884DD
:105980001AAB0D9300235E46CDE90E330DF1680985
:10599000099303933B78002B00F035813C4604E0EB
:1059A00014F8013F002B00F05681252BF8D1E51BA0
:1059B00040F053812378002B00F0258100214FF027
:1059C00000024FF0FF3B08468A466378671C8DF85B
:1059D0002F2005910137A3F12002582A00F25781A8
:1059E000DFE812F0A90255015501A5025501550144
:1059F00055015501550155019B029702550135018D
:105A00007E0255017A025900590059005900590087
:105A100059005900590059005501550155015501CA
:105A200055015501550155015501550160025501BA
:105A300055015501550155015501550155015501B6
:105A400055012201550155015501550155016800C7
:105A500055015501140255015501550155015501D6
:105A600055015501550155015501050284015501A6
:105A7000550155015C028401550155015202550141
:105A80003C0224012B02E0015501BF0155016A00CF
:105A900055015501E4010024A3F1300217F8013B40
:105AA00004EB840402EB4404A3F13002092AF5D983
:105AB000059490E74AF0100A1AF0200100F00881DE
:105AC000069B073323F007031A465968012352F84F
:105AD000080B06924FF000028DF82F20002207924B
